:100000000C943E000C9453000C9453000C94530039
:100010000C9453000C9453000C9453000C94530014
:100020000C9453000C9453000C9453000C94530004
:100030000C9453000C9453000C9453000C945300F4
:100040000C9453000C9453000C9453000C945300E4
:100050000C9453000C9453000C9453000C945300D4
:100060000C9453000C9453000C9453000C945300C4
:100070000C9453000C9453000C94530011241FBE95
:10008000CFEFD0E1DEBFCDBF11E0A0E0B1E0E0E016
:10009000F2E002C005900D92AA39B107D9F70E948B
:1000A00088000C94FE000C940000559A81E4809323
:1000B000800082E1809381000895EF92FF920F9378
:1000C0001F93E0909601F090970100919801109194
:1000D000990122E0EE0CFF1C001F111F2A95D1F799
:1000E0009C0140E050E0C801B7010E94BD009B01A7
:1000F000AC0160E07BE187EB90E00E94DC00309394
:100100008900209388001F910F91FF90EF90089530
:10011000EF92FF920F931F93CF93DF93559A81E451
:100120008093800082E18093810000E010E0C0E0D5
:10013000D0E04CE2E42E41E0F42ED7FF02C000E014
:1001400010E0CC34D1052CF40115110521F42196D1
:1001500003C001E010E0219780E29EE4F7013197AF
:10016000F1F70197D9F7FE01EE0FFF1FE050FF4FA7
:10017000808191810E945D00E0CF629FD001739FDA
:10018000F001829FE00DF11D649FE00DF11D929F33
:10019000F00D839FF00D749FF00D659FF00D992772
:1001A000729FB00DE11DF91F639FB00DE11DF91F96
:1001B000BD01CF0111240895A1E21A2EAA1BBB1B79
:1001C000FD010DC0AA1FBB1FEE1FFF1FA217B30723
:1001D000E407F50720F0A21BB30BE40BF50B661F39
:1001E000771F881F991F1A9469F7609570958095FD
:1001F00090959B01AC01BD01CF010895F894FFCF0C
:100200003E004100450049004E00520057005C008E
:10021000620068006E0075007B0083008B00930015
:100220009C00A500AF00B900C400D000DC00E900CC
:10023000F70006011501260137014A015D0172012F
:1002400088019F01B801D201EE010B022A024B0284
:100250006E029302BA02E40210033F037003A40388
:10026000DC03170455049704DD0427057505C8054C
:1002700020067D06E0064907B8072D08A9082D09C4
:10028000B9094D0AEA0A900B400CFA0CC00D910E08
:0A0290006F0F5A1053110800000010
:00000001FF
