:100000000C943E000C945B000C945B000C945B0021
:100010000C945B000C945B000C945B000C945B00F4
:100020000C945B000C945B000C945B000C945B00E4
:100030000C945B000C945B000C945B000C945B00D4
:100040000C945B000C945B000C945B000C945B00C4
:100050000C945B000C945B000C945B000C945B00B4
:100060000C945B000C945B000C945B000C945B00A4
:100070000C945B000C945B000C945B0011241FBE7D
:10008000CFEFD0E1DEBFCDBF17E0A0E0B1E0E0E30D
:10009000F0E102C005900D92A63EB107D9F717E036
:1000A000A6EEB7E001C01D92AB3EB107E1F70E949A
:1000B00006010C9416080C940000559A81E4809374
:1000C000800082E18093810008959C0185E0220FE9
:1000D000331F8A95E1F740E050E060E07BE187EB79
:1000E00090E00E94A2073093890020938800089531
:1000F000579AE0EBF0E0808183688083E1EBF0E0E9
:10010000808181608083089590E0AA2797FDA09563
:10011000BA2FBC01CD010E94FB0420E030E040E892
:1001200053E40E94250320E030E048EC52E40E94B2
:100130001F040E944F016093B3000895009749F097
:100140009093EA078093E9071092E8071092E70777
:1001500012C0E091E907F091EA078091E7079091DA
:10016000E80701969093E8078093E707E80FF91FE7
:10017000E081EE2319F4E0E0F0E046C0E73461F1FD
:10018000E83474F4E33401F1E4342CF4E13431F173
:10019000E234B9F425C0E534D9F0E634DCF416C015
:1001A000E436A1F0E5363CF4E236D1F0E33664F40F
:1001B000E13639F413C0E63669F0E6364CF0E7363E
:1001C00059F0E2E0F0E020C08AE10BC08CE109C008
:1001D0008EE107C08FE105C081E203C083E201C068
:1001E00085E28093E607EB352CF08091E607845F8B
:1001F0008093E607E091E607F0E0EE0FFF1FE05086
:10020000FF4F0190F081E02DCF010895EF92FF9212
:100210000F931F93CF93DF93279A559A81E480938E
:10022000800082E1809381000E94780000E010E06D
:100230002CE2E22E21E0F22E86E991E00E949E005F
:1002400018C0C230D105A9F00B5F1F4F802F0E944C
:100250008400CE010E94650084E991E1F7013197A5
:10026000F1F70197D9F78BB180588BB985B18058D8
:1002700085B980E090E00E949E00EC01009709F7AC
:1002800084E991E1F7013197F1F70197D9F784E912
:1002900091E1F7013197F1F70197D9F7CDCFEF92BF
:1002A000FF920F931F937B018C0120E030E040E030
:1002B0005FE40E94CB0488238CF0C801B70120E0E2
:1002C00030E040E05FE40E94C7020E9459059B01B4
:1002D000AC01205030404040504806C0C801B70132
:1002E0000E9459059B01AC01B901CA011F910F91F0
:1002F000FF90EF900895A0E0B0E0E1E8F1E00C9409
:10030000DF07DC012B01FA019C91923008F439C11E
:10031000EB018881823008F433C1943069F4843071
:1003200009F02FC111969C9111978981981709F4B2
:1003300028C1AEEDB6E025C1843009F421C1823078
:10034000A9F4923009F01DC19A01AD0188E0EA01DB
:100350000990AE01E90109929E018150C1F7E201C5
:10036000898111969C918923818308C1923009F477
:1003700007C112962D903C901397EB018A819B81C7
:100380001496AD90BD90CD90DC901797EC80FD80D9
:100390000E811F819101281B390BB90137FF04C061
:1003A00066277727621B730B603271050CF061C002
:1003B000121613066CF537014801062E04C09694F8
:1003C0008794779467940A94D2F721E030E040E074
:1003D00050E004C0220F331F441F551F6A95D2F707
:1003E00021503040404050402E213F214023512396
:1003F000211531054105510521F021E030E040E0B3
:1004000050E079018A01E628F728082919293CC01B
:10041000232BD1F1260E371E35014601062E04C0CE
:1004200096948794779467940A94D2F721E030E009
:1004300040E050E004C0220F331F441F551F6A954F
:10044000D2F721503040404050402A213B214C21DE
:100450005D21211531054105510521F021E030E0F4
:1004600040E050E059016A01A628B728C828D928D9
:100470000BC0821593052CF01C01AA24BB24650136
:1004800003C0EE24FF24870111969C91D20111969E
:100490008C91981709F445C0992339F0A801970168
:1004A0002A193B094C095D0906C0A60195012E19C0
:1004B0003F09400B510B57FD08C011823382228245
:1004C00024833583468357831DC081E08183338233
:1004D000228288279927DC01821B930BA40BB50B82
:1004E00084839583A683B7830DC0220F331F441FD7
:1004F000551F2483358346835783828193810197D7
:10050000938382832481358146815781DA01C90131
:100510000197A109B1098F5F9F4FAF4FBF4328F3E8
:100520000BC0918333822282EA0CFB1C0C1D1D1D23
:10053000E482F5820683178383E0808324813581FA
:100540004681578157FF1AC0C901AA2797FDA09578
:10055000BA2F81709070A070B070569547953795FE
:100560002795822B932BA42BB52B84839583A6836D
:10057000B78382819381019693838283DF0101C0D7
:10058000D201CD01CDB7DEB7E2E10C94FB07A0E2CA
:10059000B0E0EDECF2E00C94EB0769837A838B8397
:1005A0009C832D833E834F835887E9E0EE2EF12C08
:1005B000EC0EFD1ECE010196B7010E94D1068E0100
:1005C0000F5E1F4FCE010596B8010E94D1068A89A1
:1005D00091E089278A8BC701B801AE01475E5F4F62
:1005E0000E947B010E94FC05A096E6E00C9407089F
:1005F000A0E2B0E0EEEFF2E00C94EB0769837A83BF
:100600008B839C832D833E834F835887F9E0EF2EA5
:10061000F12CEC0EFD1ECE010196B7010E94D10611
:100620008E010F5E1F4FCE010596B8010E94D106C4
:10063000C701B801AE01475E5F4F0E947B010E9477
:10064000FC05A096E6E00C940708A0E2B0E0EBE21F
:10065000F3E00C94DF0769837A838B839C832D837B
:100660003E834F835887CE010196BE01675F7F4F5F
:100670000E94D106CE010596BE016F5E7F4F0E949B
:10068000D1069985923088F089898230C8F09430FB
:1006900019F4823051F404C0843029F4923081F48A
:1006A0008EED96E0C6C0923049F420E09A858A89A2
:1006B000981321E02A87CE010996BBC0823049F405
:1006C00020E09A858A89981321E02A8BCE014196F1
:1006D000B0C02D843E844F8458886D887E888F8872
:1006E000988CEE24FF248701AA24BB24650140E0F6
:1006F00050E060E070E0E0E0F0E0C10181709070F7
:10070000892BE9F0E60CF71C081D191D9A01AB01B5
:100710002A0D3B1D4C1D5D1D80E090E0A0E0B0E087
:10072000E614F7040805190520F481E090E0A0E044
:10073000B0E0BA01A901480F591F6A1F7B1FAA0C1C
:10074000BB1CCC1CDD1C97FE08C081E090E0A0E043
:10075000B0E0A82AB92ACA2ADB2A3196E032F1058C
:1007600049F0660C771C881C991C56944794379462
:100770002794C3CFFA85EA892B893C898B859C8590
:10078000280F391F2E5F3F4F17C0CA01817090702C
:10079000892B61F016950795F794E79480E090E037
:1007A000A0E0B0E8E82AF92A0A2B1B2B769567957A
:1007B000579547952F5F3F4F77FDE7CF0CC0440F0C
:1007C000551F661F771F17FD4160EE0CFF1C001FB1
:1007D000111F21503040403090E0590790E06907E8
:1007E00090E4790760F32B8F3C8FDB01CA018F7790
:1007F0009070A070B07080349105A105B10561F4CE
:1008000047FD0AC0E114F1040105110529F0405C1F
:100810005F4F6F4F7F4F40781A8EFE1711F081E0C7
:100820008A8F4D8F5E8F6F8F78A383E0898FCE0183
:1008300049960E94FC05A096E2E10C94FB07A8E112
:10084000B0E0E5E2F4E00C94E70769837A838B83F8
:100850009C832D833E834F835887B9E0EB2EF12C88
:10086000EC0EFD1ECE010196B7010E94D1068E014D
:100870000F5E1F4FCE010596B8010E94D106298553
:10088000223008F47EC03989323010F4B8017CC0BF
:100890008A859A8989278A87243011F0223031F499
:1008A000231709F06EC06EED76E06EC0343039F477
:1008B0001D861E861F86188A1C861B8604C0323041
:1008C00021F484E08987B7015FC02B853C858B8943
:1008D0009C89281B390B3C872B87ED84FE840F8570
:1008E0001889AD88BE88CF88D88CEA14FB040C0523
:1008F0001D0540F4EE0CFF1C001F111F215030405D
:100900003C872B8720E030E040E050E080E090E042
:10091000A0E0B0E460E070E0EA14FB040C051D0503
:1009200040F0282B392B4A2B5B2BEA18FB080C09CB
:100930001D09B695A79597958795EE0CFF1C001F8E
:10094000111F6F5F7F4F6F31710531F7DA01C901F8
:100950008F779070A070B07080349105A105B105BB
:1009600061F427FD0AC0E114F1040105110529F025
:10097000205C3F4F4F4F5F4F20782D873E874F873A
:10098000588BBE01675F7F4FCB010E94FC056896C4
:10099000EAE00C940308A8E1B0E0E1EDF4E00C9487
:1009A000EB0769837A838B839C832D833E834F83FC
:1009B000588789E0E82EF12CEC0EFD1ECE01019641
:1009C000B7010E94D1068E010F5E1F4FCE01059622
:1009D000B8010E94D1068985823040F08989823031
:1009E00028F0C701B8010E94490701C08FEF68963F
:1009F000E6E00C940708A8E0B0E0E1E0F5E00C9434
:100A0000E8079B01AC0183E08983DA01C9018827EB
:100A1000B7FD83959927AA27BB27B82E2115310545
:100A20004105510519F482E089833AC08823A9F071
:100A3000203080E0380780E0480780E8580729F434
:100A400060E070E080E09FEC30C0EE24FF2487017E
:100A5000E21AF30A040B150B02C079018A018EE138
:100A6000C82ED12CDC82CB82ED82FE820F831887C8
:100A7000C801B7010E94AD0501971816190684F444
:100A8000082E04C0EE0CFF1C001F111F0A94D2F7A1
:100A9000ED82FE820F831887C81AD90ADC82CB82C6
:100AA000BA82CE0101960E94FC052896E9E00C94DA
:100AB0000408ACE0B0E0EFE5F5E00C94EF076983E3
:100AC0007A838B839C83CE010196BE016B5F7F4F3F
:100AD0000E94D1068D81823061F1823050F18430E4
:100AE00021F48E81882351F12EC02F81388537FD66
:100AF00020C06E812F3131051CF06623F9F023C030
:100B00008EE190E0821B930B29853A854B855C85AD
:100B100004C056954795379527958A95D2F7662351
:100B2000B1F050954095309521953F4F4F4F5F4F15
:100B30000EC020E030E040E050E009C02FEF3FEF72
:100B40004FEF5FE704C020E030E040E050E8B9013B
:100B5000CA012C96E2E00C940B08EF92FF920F93DF
:100B60001F937B018C0180E0E81680E0F80681E0AD
:100B7000080780E0180788F48FEFE816F1040105F4
:100B8000110531F028F088E090E0A0E0B0E017C057
:100B900080E090E0A0E0B0E012C080E0E81680E0E5
:100BA000F80680E0080781E0180728F088E190E067
:100BB000A0E0B0E004C080E190E0A0E0B0E020E27E
:100BC00030E040E050E0281B390B4A0B5B0B04C0BF
:100BD00016950795F794E7948A95D2F7F701EA51AD
:100BE000F94F8081281B310941095109C9011F9121
:100BF0000F91FF90EF900895DF92EF92FF920F9385
:100C00001F93FC01E480F58006811781D1808081EB
:100C1000823048F480E090E0A0E1B0E0E82AF92AD0
:100C20000A2B1B2BA5C0843009F49FC0823021F40D
:100C3000EE24FF24870105C0E114F104010511052C
:100C400019F4E0E0F0E096C0628173819FEF6238B2
:100C500079070CF05BC022E83FEF261B370B2A31E7
:100C600031052CF020E030E040E050E02AC0B8012F
:100C7000A701022E04C076956795579547950A946B
:100C8000D2F781E090E0A0E0B0E004C0880F991FA7
:100C9000AA1FBB1F2A95D2F70197A109B1098E217E
:100CA0009F21A023B1230097A105B10521F081E088
:100CB00090E0A0E0B0E09A01AB01282B392B4A2B41
:100CC0005B2BDA01C9018F779070A070B07080340F
:100CD0009105A105B10539F427FF09C0205C3F4FFC
:100CE0004F4F5F4F04C0215C3F4F4F4F5F4FE0E0DD
:100CF000F0E02030A0E03A07A0E04A07A0E45A075D
:100D000010F0E1E0F0E079018A0127C06038710558
:100D100064F5FB01E158FF4FD801C7018F77907050
:100D2000A070B07080349105A105B10539F4E7FEDB
:100D30000DC080E490E0A0E0B0E004C08FE390E05C
:100D4000A0E0B0E0E80EF91E0A1F1B1F17FF05C048
:100D500016950795F794E794319687E016950795D1
:100D6000F794E7948A95D1F705C0EE24FF24870114
:100D7000EFEFF0E06E2F679566276795902F9F77CE
:100D8000D794DD24D7948E2F8695492F462B582F44
:100D90005D29B701CA011F910F91FF90EF90DF907D
:100DA0000895FC01DB01408151812281622F6F7720
:100DB00070E0221F2227221F9381892F880F822B08
:100DC000282F30E0991F9927991F11969C9311970E
:100DD00021153105A9F5411551056105710511F47C
:100DE00082E037C082E89FEF13969C938E93129710
:100DF0009A01AB0167E0220F331F441F551F6A950C
:100E0000D1F783E08C930DC0220F331F441F551F71
:100E100012968D919C911397019713969C938E93A4
:100E20001297203080E0380780E0480780E45807B8
:100E300058F314962D933D934D935C931797089513
:100E40002F3F310579F4411551056105710519F4FC
:100E500084E08C93089564FF03C081E08C9312C0FA
:100E60001C9210C02F57304013963C932E9312972C
:100E700083E08C9387E0440F551F661F771F8A9588
:100E8000D1F7706414964D935D936D937C9317978F
:100E900008951F93DC01FB019C91923008F447C038
:100EA0008081823008F443C0943051F411961C9133
:100EB000843099F58181682F70E0611B71093FC012
:100EC000843021F0923031F48230B9F1818188236D
:100ED00089F12DC011961C9111978230F1F081811A
:100EE0001817D9F412962D913C9113978281938112
:100EF0008217930794F028173907BCF014968D9148
:100F00009D910D90BC91A02D248135814681578102
:100F1000281739074A075B0718F4112341F00AC064
:100F200082179307A407B50740F4112319F061E075
:100F300070E005C06FEF7FEF02C060E070E0CB01B2
:100F40001F91089597FB092E05260ED057FD04D05A
:100F500014D00AD0001C38F4509540953095219556
:100F60003F4F4F4F5F4F0895F6F7909580957095DE
:100F700061957F4F8F4F9F4F0895A1E21A2EAA1BB4
:100F8000BB1BFD010DC0AA1FBB1FEE1FFF1FA21739
:100F9000B307E407F50720F0A21BB30BE40BF50B36
:100FA000661F771F881F991F1A9469F760957095BF
:100FB000809590959B01AC01BD01CF0108952F92C2
:100FC0003F924F925F926F927F928F929F92AF92D9
:100FD000BF92CF92DF92EF92FF920F931F93CF9326
:100FE000DF93CDB7DEB7CA1BDB0B0FB6F894DEBFBD
:100FF0000FBECDBF09942A88398848885F846E84E3
:101000007D848C849B84AA84B984C884DF80EE802C
:10101000FD800C811B81AA81B981CE0FD11D0FB635
:10102000F894DEBF0FBECDBFED010895F894FFCF59
:101030003E004100450049004E00520057005C0050
:10104000620068006E0075007B0083008B009300D7
:101050009C00A500AF00B900C400D000DC00E9008E
:10106000F70006011501260137014A015D017201F1
:1010700088019F01B801D201EE010B022A024B0246
:101080006E029302BA02E40210033F037003A4034A
:10109000DC03170455049704DD0427057505C8050E
:1010A00020067D06E0064907B8072D08A9082D0986
:1010B000B9094D0AEA0A900B400CFA0CC00D910ECA
:1010C0006F0F5A105311583A310A543A2050726532
:1010D0006C7564652066726F6D206669727374202A
:1010E00043656C6C6F2053756974650A433A204AF6
:1010F0002E532E20426163682C206865726520742F
:1011000072616E73706F73656420666F72206D61BB
:101110006E646F6C696E0A4D3A20342F340A4C3A73
:1011200020312F31360A4B3A440A2844416629655A
:101130002066416641202844416629652066416653
:1011400041207C202844426729662067426742206C
:101150002844426729662067426742207C0A284467
:10116000636729662067636763202844636729668D
:101170002067636763207C202844646629642066B6
:10118000646664202844646629642066646664207A
:101190007C0A2844426629652066646364204264B0
:1011A00063642046415E474620207C20285E4764D9
:1011B000652964206564656420285E476465296448
:1011C0002065646564207C0A28636561295E672068
:1011D0006165646520636564652041634241202048
:1011E0007C2028422C4664296320644664462028DB
:1011F000422C466429632064466446207C0A2842C7
:101200002C5E4741294220414746452028646342DD
:101210002961205E67666564207C2028634241293D
:10122000612065616365202841426329652064630C
:101230004241207C0A5E6428413D6342292063418B
:101240006441206628416342292063416441202093
:101250007C2028474265296620676542412028474F
:10126000426529662067655E6342207C0A5E4128EC
:1012700063416329206563656320412863416329D5
:1012800020656365632020207C20286463422964F4
:1012900020636465632064634241204746454420DF
:1012A0007C0A434741472041474147204347414744
:1012B0002041474147207C202844463D6329422065
:1012C00063466346202844466329422063466346BA
:1012D000207C0A284447422941204247424720288F
:1012E00044474229412042474247207C2028445E0F
:1012F00063672966206763676320284463672966FC
:101300002067636763207C0A28444166296520665C
:101310006463422041474645204443422C412C20EF
:101320007C205E472C284542632920644263642068
:10133000472C28454263292064426364207C0A3D8F
:10134000472C28454142292063414263203D472CD8
:1013500028454142292063414263207C20472C28B4
:10136000454163292028655E67286132292061296B
:1013700045463D472041426364207C0A25736563EE
:101380006F6E6420706172740A286563412942207F
:101390006364656620286765632964206566676104
:1013A000207C205F62615E676120613D6766672027
:1013B0006765633D422041454647207C0A412C2811
:1013C0004541632920656667652028666441294791
:1013D0002046444546207C20412C444641206465FB
:1013E0006665205E673D6665662066655E646520AD
:1013F0007C0A653D6463642064425E47462045473D
:10140000426420655E676167207C206165634220DD
:10141000636541632045415E474620454443422C75
:10142000207C0A412C3220283D6766206564634297
:10143000204129286766652064634241207C20475B
:10144000292866656420634241472046292865644F
:10145000632042414746207C0A462928646342298A
:10146000205B63635D655B41415D65205B42425D7E
:10147000655B63635D65205B64645D655B42425DE3
:1014800065207C205B63635D655B41415D65205B3E
:1014900064645D655B42425D65205B63635D655BC3
:1014A00041415D65205B64645D655B42425D652032
:1014B0007C0A5B63635D655B41415D65205B424225
:1014C0005D655B63635D65205B64645D655B65654D
:1014D0005D65205B66665D655B41415D65207C20E6
:1014E0005B65655D655B66665D65205B67675D6521
:1014F0005B41415D65205B66665D655B67675D6559
:10150000205B61615D655B66665D65207C0A5B678B
:10151000675D655B66665D65205B67675D655B65EE
:10152000655D65205B66665D655B65655D65205B29
:1015300066665D655B64645D65207C205B65655DFA
:10154000655B64645D65205B65655D655B63635DCC
:1015500065205B64645D655B63635D65205B6464FB
:101560005D655B42425D65207C0A63654142203DCA
:1015700063415E63412064415E64412065413D6694
:1015800041207C205E66416741205E6741614120C9
:101590005E62413D62413D6327415E632741207C9D
:1015A0000A64272866416629206427666427662026
:1015B0006427286641662920642766642766207CA4
:1015C00020642728654165292064276564276520F4
:1015D0006427286541652920642765642765207C88
:1015E0000A632728674167292063276763276720E5
:1015F0006327286741672920632767632767207C63
:10160000205B443136416664275D207C5D0000002C
:1016100000000000000000010202030303030404B1
:101620000404040404040505050505050505050570
:101630000505050505050606060606060606060650
:10164000060606060606060606060606060606063A
:101650000606060606060707070707070707070720
:10166000070707070707070707070707070707070A
:1016700007070707070707070707070707070707FA
:1016800007070707070707070707070707070707EA
:1016900007070707070708080808080808080808D0
:1016A00008080808080808080808080808080808BA
:1016B00008080808080808080808080808080808AA
:1016C000080808080808080808080808080808089A
:1016D000080808080808080808080808080808088A
:1016E000080808080808080808080808080808087A
:1016F000080808080808080808080808080808086A
:101700000808080808080808080808080808080859
:06171000080808080808A3
:00000001FF
