:100000000C943E000C9453000C9453000C94530039
:100010000C9453000C9453000C9453000C94530014
:100020000C9453000C9453000C9453000C94530004
:100030000C9453000C9453000C9453000C945300F4
:100040000C9453000C9453000C9453000C945300E4
:100050000C9453000C9453000C9453000C945300D4
:100060000C9453000C9453000C9453000C945300C4
:100070000C9453000C9453000C94530011241FBE95
:10008000CFEFD0E1DEBFCDBF11E0A0E0B1E0EEEAFE
:10009000F1E002C005900D92A430B107D9F70E949B
:1000A00088000C94D5000C940000559A81E480934C
:1000B000800082E1809381000895EF92FF920F9378
:1000C0001F93E0900001F090010100910201109156
:1000D000030122E0EE0CFF1C001F111F2A95D1F72F
:1000E0009C0140E050E0C801B7010E9494009B01D0
:1000F000AC0160E07BE187EB90E00E94B3003093BD
:100100008900209388001F910F91FF90EF90089530
:10011000559A81E48093800082E18093810086E09B
:1001200091E00E945D00FBCF629FD001739FF001C0
:10013000829FE00DF11D649FE00DF11D929FF00D77
:10014000839FF00D749FF00D659FF00D9927729FAE
:10015000B00DE11DF91F639FB00DE11DF91FBD0139
:10016000CF0111240895A1E21A2EAA1BBB1BFD0189
:100170000DC0AA1FBB1FEE1FFF1FA217B307E40786
:10018000F50720F0A21BB30BE40BF50B661F771FDE
:10019000881F991F1A9469F76095709580959095BE
:0E01A0009B01AC01BD01CF010895F894FFCF83
:0401AE000800000045
:00000001FF
